{
  "contractName": "W1_2",
  "abi": [
    {
      "inputs": [],
      "stateMutability": "nonpayable",
      "type": "constructor"
    },
    {
      "inputs": [
        {
          "internalType": "uint256",
          "name": "x",
          "type": "uint256"
        }
      ],
      "name": "add",
      "outputs": [],
      "stateMutability": "nonpayable",
      "type": "function"
    }
  ],
  "bytecode": "0x608060405234801561001057600080fd5b5060008081905550610164806100276000396000f3fe608060405234801561001057600080fd5b506004361061002b5760003560e01c80631003e2d214610030575b600080fd5b61004a6004803603810190610045919061009e565b61004c565b005b8060005461005a91906100fa565b60008190555050565b600080fd5b6000819050919050565b61007b81610068565b811461008657600080fd5b50565b60008135905061009881610072565b92915050565b6000602082840312156100b4576100b3610063565b5b60006100c284828501610089565b91505092915050565b7f4e487b7100000000000000000000000000000000000000000000000000000000600052601160045260246000fd5b600061010582610068565b915061011083610068565b9250828201905080821115610128576101276100cb565b5b9291505056fea264697066735822122034a31afc20bfb550dbc564a3f38724bd1f6a35281772ba794b4f25ccb2c9eb6364736f6c63430008130033",
  "immutableReferences": {},
  "source": "// SPDX-License-Identifier: MIT\npragma solidity ^0.8.19;\n\ncontract W1_2 {\n\n    uint counter;\n\n    constructor() {\n        counter = 0;\n    }\n\n    function add(uint x) public {\n        counter = counter + x;\n    }\n\n    function count() private {\n        counter = counter + 1;\n    }\n}",
  "sourcePath": "/Users/rejoicelee/github/rejoicelee/upchaincamp/W1-2/truffledemo/contracts/W1_2.sol",
  "compiler": {
    "name": "solc",
    "version": "0.8.19+commit.7dd6d404.Emscripten.clang"
  },
  "schemaVersion": "3.4.13",
  "updatedAt": "2023-03-09T18:19:39.688Z",
  "networkType": "ethereum",
  "devdoc": {
    "kind": "dev",
    "methods": {},
    "version": 1
  },
  "userdoc": {
    "kind": "user",
    "methods": {},
    "version": 1
  }
}